:400000000080002011000000C5040000C504000008B5044B1A6803F53F5302331A6000F059FA00BFFA46004010B5054C237833B9044B13B10448AFF300800123237010BD92
:400040005082FF1F00000000F8140000084B10B51BB108490848AFF300800848036803B910BD074B002BFBD0BDE81040184700BF000000005482FF1FF8140000C880FF1FD8
:400080000000000008B5002000F0C2FC08BD00BF684620F007018D4619B572B6EFF311841E4B1B68DBB20F2B10D9103B23F0030202F1604202F564421168DB0003F0180398
:4000C000E0229A400A4022FA03F306E00F2B03D1134B1B681B0E00E0002383F31188114A136801331360012B01D101F053F862B6FFF7C8FF72B684F3118800F02DFD094A87
:400100001368013B13601BB901F04DF801F011F862B6BDE819408546704700BF04ED00E020ED00E0C482FF1F08B562B645F6BF52054B1A60054A136843F002031360002098
:4001400000F0F8FDFBE700BF14E000E010E000E008B500F05DF800F051FE094A136843F00503136005221146002000F0D3FA032000F00AFA012000F007FA00F021FE08BD40
:4001800010E000E008B500F04FF800F019FE08BD08B500F005F800F013FE08BD00BFFDE738B5194D194C238803EB43035A00A85C00F034FE238803EB43035A002A44507816
:4001C00000F038FE238803EB43035A001544A87800F03CFE2388082B02D10022228002E001330A4A1380012000F042FA074B1B8803EB43035A00044B1344002299880120B1
:4002000000F088FA38BD00BFFC1400006C82FF1F08B5002000F050FE002000F0B9FE002000F022FF002008BD38B5002408E000F08DFEE0B200F040FE052000F013FE0134F5
:40024000FE2CF4DDFF250DE000F0ECFEECB2204600F032FEE043C0B200F09AFE052000F001FE013D002DEFDC00240DE000F046FFE5B2E843C0B200F08BFE284600F0F4FECA
:40028000052000F0EFFD0134FE2CEFDDFF2406E0E0B200F0E9FE052000F0E4FD013C002CF6DC002038BD00BFFEE700BFF0B40022174611E050F82760F3B226F0FF0608E06C
:4002C00001EB420511F812406D78A5550132013BDBB2002BF4D101370C2FEBD9F0BC7047064B1B78DBB203F00701054A11701B09013213704422034B1A707047CF010049E7
:400300006E5800407658004008B50A46002101F0EAF808BD38B540F2CF72244B1A80182202331A70022203F27E231A7008224FF040231A70032103F5007319701C4B1B78D5
:40034000DBB21C490B701C4B1A8041F25122023B1A80002419250CE0184B1B7803F0010343EA440404F003044FF4F07000F098FF013D0DB1032CEFD115B90320FFF794FF58
:400380000F4B4FF480721A8007221A7000220D490A704820023108701A700222033B1A70094A137843F00103137038BD8040004008010049A1460040224200402542004095
:4003C0000440004006400040A243004008B501F07FF808BD38B572B62B4A137843F00403137000240CE0294D630019194A0011462A44084691882858FFF786FF0134E4B2BB
:40040000072CF0D922494FF09040FFF74FFF214A137843F0020313701032137843F0020313701D4C237843F040032370A2F58632513A137843F010031370082217491848A4
:40044000FFF7C4FF082217491748FFF7BFFF082216491748FFF7BAFF164A137843F008031370154D61232B70FFF754FF81232B700122124B1A70FFF733FF0E2221461048B9
:40048000FFF7A4FF38BD00BFE8460040341500003400004803500140A0430040D001004802510040D801004812510040E00100482251004022430040004800400400084040
:4004C000B043004008B500F0D7FF03680C2B00D1FEE7FEE708B5104E104D16E029686B68AC68002204E051F8040B43F8040B0432A242F8D1E868002203E0002143F8041BC8
:4005000004328242F9D11035013E002EE6D100F0B9FFFFF709FEFEE701000000BC17000008B5104A104B1A60104A136843F40073136000230AE0032B03D80D4A52F8231068
:4005400000E00C490C4A42F8231001332F2BF2D90A4B1A780A4B1A70074A0A4B1A60FFF739FF08BD0004FA050CED00E014ED00E000000000C50400000080FF1FBC760040BB
:40058000C080FF1F08ED00E038B5EFF3108572B603284ED82D4B53F82030002B4BD02B4A013B42F820302A4B53F82030032B07D10222274B43F820200022264B43F8202062
:4005C00000F03AFB244B1B68002B36D1234B1C6800F010FBB0F1FF3F31D0214B53F82020204B1B689A422CD9B4F1FF3F03D00221174A42F824101C4A52F820201343194ACE
:4006000013600022124B43F8202000F0AFFA174B53F820304BB10024144B43F8204040F0004000F0C9FD20460CE000F0C5FD002008E0032006E0042004E0002002E0002038
:4006400000E0002085F3108838BD00BF0C81FF1FB081FF1F9082FF1FC482FF1F9C81FF1FFC160000A882FF1FEC1600007082FF1FEFF3108272B601283CD803012249CB5816
:40068000002B39D010B400EB40018B001F49CC581F4B03EBC4035968884209D11A4B03EB0013D9681A4B03EBC40461600DE01946154B03EB0113DB689842F8D1124B03EB19
:4006C0000014E46803EB0111CC600F4B03EB0013DC68B4F1FF3F08D00B4B03EB0011896803EB04139C6821449960030100200649C85005E0032000E0052082F3108870470B
:4007000082F3108810BC7047EC82FF1F98160000D480FF1FF8B5EFF3108472B6012825D800EB4005AB00184DEB5803EB4306B500164E75598D421BD34AB103EB43039E00E1
:40074000124B1E44B3689A4214D3954214D3A9B103010F4DEB589BB90301EE180127EF507260013900F086F800200AE0032008E0082006E0082004E0082002E0082000E0A1
:40078000072084F31088F8BD98160000C0160000EC82FF1F18B108B5C368984708BD704708B508B1406800E00020032816D80C4B53F8203093B10A4A013B42F82030094B57
:4007C00053F82030032B07D10222064B43F820200022054B43F8202000F02EFA08BD00BF0C81FF1FB081FF1F9082FF1F18B1034640689B6801E00023184603281DD80F4A1D
:4008000052F82020CAB10E4A52F82010032914D010B50C4C54F820201A4344F820200A4A52F82020134207D0012905D10222044B43F8202000F000FA10BD7047CC16000007
:40084000B081FF1F9082FF1F8082FF1F80B108B50378012B06D013B1032B06D008BDFFF79FFF08BDFFF7C2FF08BDFFF793FF08BD704700BF30B400EB40029300214AD25810
:40088000214B03EBC2035C68B4F1FF3F04D11E4B03EBC20250602DE01C4B03EB04139B6899420AD2184D05EBC2025060174A02EB04125B1A93601DE01C46144B03EB041347
:4008C0009A68891ADB68B3F1FF3F05D00F4A02EB031292689142EFD2B3F1FF3F05D00B4A02EB031295686D1A9560084A02EB0414E0601C46054B03EB00108160C46030BCB1
:40090000704700BF98160000D480FF1FEC82FF1F38B5394A02EBC0035C6852F83030013342F8303000EB40018A0034498A58934203D90022304B43F83020B4F1FF3F59D03F
:400940002F4B03EB04139B68002B4ED1214600E019462B4B03EB0113DB68B3F1FF3F05D0274A02EB03129268002AF1D0244A02EB01114FF0FF32CA601F4A02EBC00043607B
:40098000B3F1FF3F07D01E4A02EB03139A68013A9A6000E02C4604EB44029300194A13441B7A7BB904EB44029300164A13445A68154B53F8223003EB83039A001348104444
:4009C000FFF744FF0E4B03EB0413DD68596821B101392046FFF74EFF03E024010022084B1A51B5F1FF3FD5D138BD054A02EB0414013BA36038BD00BFD480FF1FC0160000AF
:400A0000EC82FF1F98160000B81600007016000038B5EFF3108572B6002838D1FFF778FF204B1B68002B34D11F4B1C6800F0E2F8B0F1FF3F2FD01D4B53F820201C4B1B686D
:400A40009A422AD9B4F1FF3F03D00221194A42F82410194A52F820201343154A13600022144B43F8202000F081F8144B53F820304BB10024114B43F8204040F0004000F002
:400A80009BFB20460AE000F097FB002006E0032004E0002002E0002000E0002085F3108838BD00BFC482FF1F9C81FF1FFC160000A882FF1FB081FF1FEC1600007082FF1F81
:400AC00008B500F053F8084B53F8203043B10022054B43F8202040F00040044B186008BD024B186008BD00BF7082FF1FC882FF1F10B500F07FF8124B1B68B0F1FF3F1AD09D
:400B0000104A52F82010104A1268914213D9B3F1FF3F03D002240D4941F8234000210B4B43F820100A4B53F820301A43064B1A60FFF7C6FF10BD43F00043064A136010BDF9
:400B40009C81FF1FFC160000A882FF1FB081FF1FEC160000C882FF1F034B1B6813B10022014B1A60704700BFB882FF1FF0B4184B19880B0A174AD356B3F1FF3F01D1535638
:400B800001E008335BB2144D55F82320134850F82200134E56F8224045F82340114D2F6846F822702A60B4F1FF3F09D10E4A42F82340012202FA03F321EA0301044B198098
:400BC0000A4B19680A4A42F820101860F0BC7047A482FF1F641500005C81FF1FCC82FF1FEC80FF1FA082FF1F1C81FF1F9C81FF1FA081FF1F0C4B1A88130A0C49CB56B3F133
:400C0000FF3F01D18B5601E008335BB2B3F1FF3F06D0074A52F82320064B53F8220070474FF0FF30704700BFA482FF1F641500005C81FF1FCC82FF1F30B4144B53F82020B9
:400C4000134C2368134951F823502560124C44F823004FF0FF3441F82340104951F82210A1420AD10E4951F820400E480188214301800D4941F8223002E0064840F8213032
:400C8000064941F8223030BC704700BFFC80FF1FA082FF1FEC80FF1FCC82FF1F1C81FF1FFC160000A482FF1F5C81FF1F10B150F8210070474FF0FF30704700BF0122014BE8
:400CC0001A60FEE7C082FF1F70B50546124B53F8306000241CE0104B03EBC50321465868FFF7E4FF0D4A52F82030013B42F820300B4B53F82030032B07D10222084B43F8FC
:400D000020200022074B43F82020FFF795FF0134B442E0D370BD00BF641600000C81FF1FB081FF1F9082FF1F18B908B5FFF7CCFF08BD7047194B1A4ADA621A4A9A631A4AF8
:400D4000DA63EFF3108272B6184B1B6813BB10B5044600F053F8164B1C600122134B1A602046FFF7E1FFFFF745FFB0F1FF3F0ED0104B53F82030104A11680B4313600022E5
:400D80000E4B43F82020FFF7F1FE00F015FA62B6FFF794FF82F31088072070470080FF1F791100003D11000091000000C082FF1F0C83FF1FEC160000A882FF1FB081FF1F42
:400DC00008B5EFF3108272B6094B1968094B1B6833B94FF0FF30084B43F82100002000E0022010B9084600F040FA82F3108808BD9C81FF1FC482FF1FDC80FF1F10B5EFF3F0
:400E0000108472B600F088F9034A136843F07F43136084F3108810BD20ED00E0044A137803F0DF03400100F0200018431070704720510040044A137803F0EF03000100F09B
:400E4000100018431070704720510040044A137803F0F703C00000F008001843107070472051004010B5044605E0084B186800F017FAA4F50044B4F5004FF6D8034B5868E5
:400E800000FB04F000F00CFA10BD00BFD481FF1F024A137843F080031370704772640040014B1870704700BF02640040014B1870704700BF42640040014B1870704700BF07
:400EC00022640040014B1870704700BF82640040014B1878704700BF62640040014B1878704700BF5264004008B501E0FFF7F6FFFFF7EEFF10F0100FF8D108BD10B5114AE3
:400F0000137803F0C00343F0090313700E4C237843F001032370FF20FFF7C2FFFF20FFF7C5FF7F20FFF7C8FF0020FFF7CBFF00F0BFF9237843F01003237000F0BDF9FFF74C
:400F4000D3FF10BD726400409264004008B5054B1B7823B9FFF7D2FF0122024B1A70FFF797FF08BDB482FF1F024A137843F08003137070477D640040014B1870704700BF72
:400F80000D640040014B1870704700BF4D640040014B1870704700BF2D640040014B1870704700BF8D640040014B1878704700BF6D640040014B1878704700BF5D640040F9
:400FC00008B501E0FFF7F6FFFFF7EEFF10F0100FF8D108BD10B5114A137803F0C00343F0090313700E4C237843F001032370FF20FFF7C2FFFF20FFF7C5FF7F20FFF7C8FFEB
:401000000020FFF7CBFF00F053F9237843F01003237000F051F9FFF7D3FF10BD7D6400409D64004008B5054B1B7823B9FFF7D2FF0122024B1A70FFF797FF08BDB582FF1F0C
:40104000024A137843F080031370704773640040014B1870704700BF03640040014B1870704700BF43640040014B1870704700BF23640040014B1870704700BF83640040EE
:40108000014B1878704700BF63640040014B1878704700BF5364004008B501E0FFF7F6FFFFF7EEFF10F0100FF8D108BD10B5114A137803F0C00343F0090313700E4C23785D
:4010C00043F001032370FF20FFF7C2FFFF20FFF7C5FF7F20FFF7C8FF0020FFF7CBFF00F0E7F8237843F01003237000F0E5F8FFF7D3FF10BD736400409364004008B5054B3B
:401100001B7823B9FFF7D2FF0122024B1A70FFF797FF08BDB682FF1F18484FF47F0102680A43026016486FF07F4102680A400260704714484FF080510160704772B611484D
:401140004FF000610160FFF7D3FC0F48006800F0D3F858B10C4800684FF080730B4A0C490FB40FB46FF00600004700BF6FF0060062B6004762B600DF08B0704720ED00E086
:401180001CED00E004ED00E0C882FF1FB911000075110000EFF30880054908600548006880F3088870470248006880F308887047E481FF1FD081FF1F411C8900154A114436
:4011C0000968154A136899421AD0F0B444464D4656465F46F0B400B5104C9B002344EFF308851D60116089002144096881F3088802BC8E46F0BCA046A946B246BB46F0BCAE
:40120000002806DB00B500F06BF802BC8E46FFF7D3BF70472C170000AC82FF1FB082FF1FF0B444464D4656465F46F0B400B5EFF3038308B48000174901440968164A024432
:40124000EFF30883136088471448804704BC4FF08070024382F3038801BC8646F0BCA046A946B246BB46F0BC704780000A4901440A6882F3088804BC4FF08070024382F3CA
:40128000038808BC9E46F0BCA046A946B246BB46F0BC70470C170000DC82FF1FC11200000230800803D000BF01380046FCD17047EFF3108072B6704780F31088704700BF8B
:4012C00008B572B6014B1868FFF7CFFF9C81FF1F08B5024B1868FFF7A3FF08BD9C81FF1F08B562B6FFF7F4FF72B600F041F8014B186808BDC882FF1F00280BDA20F00040B7
:401300000130054B53F82000044B1B68181A18BF01207047012070472C170000AC82FF1F054B53F82020054B53F820309A4201D101207047002070470C81FF1FDC160000E7
:4013400008B5FFF713FC084B53F8203043B10022054B43F8202040F00040044B186008BD024B186008BD00BF7082FF1FC882FF1F38B5364B1C680022354B1A60354A52F848
:401380002430013342F82430334B53F824502046FFF7C6FF012801D0A54204D103222F4B43F8242003E002222C4B43F824202C4B53F824102B4A136823EA010313602A4B09
:4013C00053F82440214B1C60B5F1FF3F0FD0234B53F82530032B07D10222204B43F825200022224B43F825202846FFF725FCFFF701FCB0F1FF3F0BD1B4F1FF3F03D0002256
:40140000164B43F8242044F00044194B1C6038BD184B53F82020134B1B689A4208D800220E4B43F8242044F00044114B1C6038BD00210A4A42F82010094A52F820201343A3
:40144000084A1360FFF77CFF38BD00BF9C81FF1FB882FF1F0C81FF1FDC80FF1FB081FF1FEC160000A882FF1FA081FF1F9082FF1FC882FF1FFC160000014B1868704700BF06
:401480004882FF1F0E4B70B51E460E4C0025E41AA410A54204D056F8253098470135F8E700F07AF9084B094C1E46E41AA4100025A54204D056F8253098470135F8E770BD1A
:4014C000A4170000A4170000A4170000AC17000010B5431E0A44914204D011F8014B03F8014FF8E710BD03460244934202D003F8011BFAE77047000000000000FF000000AD
:40150000881300FF000088130000FF008813000000006400FFFFFF006400000000006400FFFFFF006400000000006400FFFFFF0064000000305100404000C051004010002B
:40154000F0510040100000000140001000140140000800400140000A004C01400002005001402000FF00010102020202030303030303030304040404040404040404040410
:4015800004040404050505050505050505050505050505050505050505050505050505050505050506060606060606060606060606060606060606060606060606060606D3
:4015C000060606060606060606060606060606060606060606060606060606060606060606060606070707070707070707070707070707070707070707070707070707074F
:4016000007070707070707070707070707070707070707070707070707070707070707070707070707070707070707070707070707070707070707070707070707070707EA
:40164000070707070707070707070707070707070707070707070707070707070707070707070707010000006C1600000000000000000000020000000000000000000000E9
:40168000FFFFFFFF00000000030000000000000000000000FFFFFFFF000000000000000000000000000000000100000000000000000000000100000000000000010000002C
:4016C00010270000000000000100000000000000000000000000000000000000010000000100000001000000010000008000000002000000100000002000000001000000FB
:40170000020000001000000020000000510100009D0100008501000091010000D1120000D1120000D1120000D11200000000000000000000000000000000000000000000E3
:40174000616C61726D5F666164657200616C61726D5F676C6F7765725F64656C617900007461736B5F696E69740000007461736B5F6261636B67726F756E64007461736BE6
:401780005F666164657200007461736B5F676C6F7765720043000000F8B500BFF8BC08BC9E4670474D00000021050000F8B500BFF8BC08BC9E46704729000000D017000062
:4017C000C880FF1F88010000C00200000000000000000000401700004C17000000000000FFFFFFFFFFFFFFFFFFFFFFFFFFFFFFFFFFFFFFFF0100000002000000030000008C
:40180000FFFFFFFF0000000001000000040000000500000001000000010000000100000001000000FFFFFFFFFFFFFFFFFFFFFFFFFFFFFFFFFFFFFFFFFFFFFFFFFFFFFFFFBA
:40184000FFFFFFFFFFFFFFFFFFFFFFFFFFFFFFFFFFFFFFFFFFFFFFFFFFFFFFFFFFFFFFFFFFFFFFFFFFFFFFFFFFFFFFFFFFFFFFFFFFFFFFFFFFFFFFFFFFFFFFFFFFFFFFFFA8
:40188000FFFFFFFFFFFFFFFFFFFFFFFFFFFFFFFFFFFFFFFFFFFFFFFFFFFFFFFFFFFFFFFFFFFFFFFFFFFFFFFFFFFFFFFFFFFFFFFFFFFFFFFFFFFFFFFF03000000030000005A
:4018C0000300000003000000601700006C1700007C170000881700001085FF1F0000E02EC05D00001800000000366E0100000000000000000000000000000000000000001B
:4019000000000000000000000000000000000000941700000000000000000000000000000000000000000000000000000000000000000000000000000000000000000000FC
:4019400000000000000000000000000000000000E881FF1F0000000000000000000000000000000000000000000000000000000000000000000000000000000000000000E0
:401980000000000000000000000000000000000000000000000000000000000000000000000000000000000000000000000000000000000000000000000000000000000027
:4019C00000000000000000000000000000000000000000000000000000000000000000000000000000000000000000000000000000000000000000000000000000000000E7
:401A000000000000000000000000000000000000000000000000000000000000000000000000000000000000000000000000000000000000000000000000000000000000A6
:401A40000000000000000000000000000000000000000000000000000000000000000000000000000000000000000000000000000000000000000000000000000000000066
:020000040003F7
:0200000480007A
:4000000002520040036400404E0201402903014003050140010B0140270C0140180D0140044101400342014002450140024601400350014000C00180820D830D8D0D0A045E
:400040000F0114011A0722082701300132023408350136043F104020410545D14602480749FF4AFF4BFF4DA04F04501852805405580459045A045B045F01604062C064404B
:40008000654066C068C06AC06CC06EC08301920894019A04A607AB01B004B202B301B408B601BF04C060C104C5D1C720C823C9FFCAFFCBFFCDA0CF04D018D280D405D804F6
:4000C000D904DA04DB04DF01E040E2C0E440E540E6C0E8C0EAC0ECC0EEC0051009020A140E200F081020168019601A141B011D301E601FA02204270829202F2038023F80AD
:4001000041014520482049224F8950015101574059425A085E405F0971027680C040C26EC414CA44CE11D021D214D6DBAF01B780EA40B308830192089A049C01A607AB01CC
:40014000B001B204B301B408B602BF04C060C104C5D1C720C823C9FFCAFFCBFFCDA0CF04D018D280D405D804D904DA04DB04DF01E040E2C0E440E540E6C0E8C0EAC0ECC02D
:40018000EEC009020A05102019201A451B082204292038024101482049215001510159015A487102C20BC404CA04CE01D001D204D60B5D026708D680D880AF04B502EE101F
:4001C0005310D404B310E804000108010E01000000C0C000C0000000000B0B0000000000003939000100000000000000000000000000000000000000000000000000000033
:4002000000000000000000000000000000000000000000000000000000000000000000000000000000000000000000000000000000000000000000000000000000000000BE
:40024000000000000000000000000000000000000000000000000000000000000000000000000000000000000000000000000000000000000000000000000000000000007E
:40028000000000000000000000000000000000000000000000000000000000000000000000000000000000000000000000000000000000000000000000000000000000003E
:4002C00000000000000000000000000000000000000000000000000000000000000000000000000000000000000000000000000000000000000000000000000000000000FE
:0200000490006A
:0400000000004005B7
:0200000490105A
:04000000BC90ACAF55
:0200000490303A
:02000000C7F740
:0200000490402A
:4000000000000000000000000000000000000000000000000000000000000000000000000000000000000000000000000000000000000000000000000000000000000000C0
:400040000000000000000000000000000000000000000000000000000000000000000000000000000000000000000000000000000000000000000000000000000000000080
:400080000000000000000000000000000000000000000000000000000000000000000000000000000000000000000000000000000000000000000000000000000000000040
:4000C0000000000000000000000000000000000000000000000000000000000000000000000000000000000000000000000000000000000000000000000000000000000000
:0200000490501A
:0C00000000012E16106900012E1FD860B0
:00000001FF