:400000000080002011000000CD040000CD04000008B5044B1A6803F53F5302331A6000F05DFA00BFFA46004010B5054C237833B9044B13B10448AFF300800123237010BD7E
:400040004082FF1F0000000080140000084B10B51BB108490848AFF300800848036803B910BD074B002BFBD0BDE81040184700BF000000004482FF1F80140000C880FF1FE8
:400080000000000008B5002000F0BAFD08BD00BF684620F007018D4619B572B6EFF311841E4B1B68DBB20F2B10D9103B23F0030202F1604202F564421168DB0003F018039F
:4000C000E0229A400A4022FA03F306E00F2B03D1134B1B681B0E00E0002383F31188114A136801331360012B01D101F027F862B6FFF7C8FF72B684F3118800F025FE094ABA
:400100001368013B13601BB901F021F800F0E5FF62B6BDE819408546704700BF04ED00E020ED00E0B882FF1F08B562B645F6BF52054B1A60054A136843F0020313600020F6
:4001400000F0F0FEFBE700BF14E000E010E000E008B500F089FF00F049FF0A4A136843F00503136001221146104600F0CBFB01221146002000F0C6FB012000F04FFB00F056
:4001800017FF08BD10E000E0024A138801331380704700BF5C82FF1F38B5314B1A88314BA3FB02139B0803EB8303D31A9BB2002B53D12B4A538801339BB25380FE2B13D8E2
:4001C00000F01EFB284C264D6B8814F8130000F0CDFA002000F0F0F96B88C3F1FF0314F8130000F057FA38E0A3F1FF0292B2FE2A14D800F02DFA1A4D6B88C3F5FF731A4C3E
:4002000014F8130000F0B2FA6B88FF3B14F8130000F0D2F9002000F03DFA1EE0A3F5FF739BB2FE2B16D800F07FFA002000F09EFA0B4D6B88C3F53F7301330B4C14F81300D9
:4002400000F0BAF96B88A3F5FF7314F8130000F021FA02E00022024B5A8000F0A9FE38BD5C82FF1FCDCCCCCC8414000000BFFDE7FEE700BFF0B40022174611E050F827600E
:40028000F3B226F0FF0608E001EB420511F812406D78A5550132013BDBB2002BF4D10137192FEBD9F0BC7047064B1B78DBB203F00701054A11701B09013213704422034BCC
:4002C0001A707047CF0100496E5800407658004008B50A46002101F0CAF808BD38B51925264B1D801823264A137040F2CF7102321180023213700222224B1A7008224FF011
:4003000040231A70032103F5007319701E4B1B78DBB21E490B701E4B1A8041F25122023B1A8000240CE01B4B1B7803F0010343EA440404F003044FF4F07000F0B1FE013DDD
:400340000DB1032CEFD115B90320FFF791FF124B4FF480721A8007221A7000220F490A704820023108701A700222033B1A700C4A137843F00303137038BD00BF80400040AC
:40038000824000400043004008010049A146004022420040254200400440004006400040A243004008B501F057F808BD38B572B6354A137843F00403137000240CE0334D97
:4003C000630019194A0011462A44084691882858FFF77EFF0134E4B2072CF0D900240BE02A48A20011194B0003441A8F596B186BFFF7D8FF0134E4B2012CF1D924494FF02E
:400400009040FFF737FF234A137843F0020313701032137843F0020313701F4C237843F040032370A2F58632513A137843F010031370082219491A48FFF7B4FF0A22194923
:400440001948FFF7AFFF082218491948FFF7AAFF082218491848FFF7A5FF184A137843F008031370164D61232B70FFF737FF81232B700122134B1A70FFF716FF0E2221461F
:400480001148FFF78FFF38BDE8460040841600006800004803500140A0430040580500480251004060050048C05100406C0500481251004074050048225100402243004050
:4004C0000048004004000840B043004008B500F097FF03680C2B00D1FEE7FEE708B5104E104D16E029686B68AC68002204E051F8040B43F8040B0432A242F8D1E868002292
:4005000003E0002143F8041B04328242F9D11035013E002EE6D100F079FFFFF705FEFEE7010000002019000008B5104A104B1A60104A136843F40073136000230AE0032B97
:4005400003D80D4A52F8231000E00C490C4A42F8231001332F2BF2D90A4B1A780A4B1A70074A0A4B1A60FFF721FF08BD0004FA050CED00E014ED00E000000000CD0400002C
:400580000080FF1FBC760040C080FF1F08ED00E0024A137843F08003137070477B650040014B1870704700BF09640040014B1870704700BF49640040014B1870704700BF99
:4005C00029640040014B1870704700BF8B650040014B1878704700BF6B650040014B1878704700BF5964004008B501E0FFF7F6FFFFF7EEFF10F0100FF8D108BD08B5124AD1
:40060000137803F0C00343F009031370E23A137843F001031370FF20FFF7C2FFFF20FFF7C5FF7F20FFF7C8FF0020FFF7CBFF00F03FFD064A137843F01003137000F03CFD72
:40064000FFF7D2FF08BD00BF7B6500409B65004008B5054B1B7823B9FFF7D0FF0122024B1A70FFF795FF08BD6082FF1F024A137843F080031370704772640040014B187094
:40068000704700BF02640040014B1870704700BF42640040014B1870704700BF22640040014B1870704700BF82640040014B1878704700BF62640040014B1878704700BFC4
:4006C0005264004008B501E0FFF7F6FFFFF7EEFF10F0100FF8D108BD10B5114A137803F0C00343F0090313700E4C237843F001032370FF20FFF7C2FFFF20FFF7C5FF7F20BB
:40070000FFF7C8FF0020FFF7CBFF00F0D1FC237843F01003237000F0CFFCFFF7D3FF10BD726400409264004008B5054B1B7823B9FFF7D2FF0122024B1A70FFF797FF08BDC1
:400740006182FF1F024A137843F080031370704773640040014B1870704700BF03640040014B1870704700BF43640040014B1870704700BF23640040014B1870704700BF1D
:4007800083640040014B1878704700BF63640040014B1878704700BF5364004008B501E0FFF7F6FFFFF7EEFF10F0100FF8D108BD10B5114A137803F0C00343F00903137034
:4007C0000E4C237843F001032370FF20FFF7C2FFFF20FFF7C5FF7F20FFF7C8FF0020FFF7CBFF00F065FC237843F01003237000F063FCFFF7D3FF10BD736400409364004058
:4008000008B5054B1B7823B9FFF7D2FF0122024B1A70FFF797FF08BD6282FF1F38B5EFF3108572B603284ED82D4B53F82030002B4BD02B4A013B42F820302A4B53F82030A7
:40084000032B07D10222274B43F820200022264B43F8202000F0E8FA244B1B68002B36D1234B1C6800F0BEFAB0F1FF3F31D0214B53F82020204B1B689A422CD9B4F1FF3F3A
:4008800003D00221174A42F824101C4A52F820201343194A13600022124B43F8202000F05DFA174B53F820304BB10024144B43F8204040F0004000F053FC20460CE000F00E
:4008C0004FFC002008E0032006E0042004E0002002E0002000E0002085F3108838BD00BF0C81FF1FB081FF1F8482FF1FB882FF1F9C81FF1F601800009C82FF1F50180000E1
:400900006482FF1FF8B5EFF3108472B6012825D800EB4005AB00184DEB5803EB4306B500164E75598D421BD34AB103EB43039E00124B1E44B3689A4214D3954214D3A9B162
:4009400003010F4DEB589BB90301EE180127EF507260013900F086F800200AE0032008E0082006E0082004E0082002E0082000E0072084F31088F8BDFC170000241800001A
:40098000E082FF1F18B108B5C368984708BD704708B508B1406800E00020032816D80C4B53F8203093B10A4A013B42F82030094B53F82030032B07D10222064B43F820203F
:4009C0000022054B43F8202000F02EFA08BD00BF0C81FF1FB081FF1F8482FF1F18B1034640689B6801E00023184603281DD80F4A52F82020CAB10E4A52F82010032914D0D1
:400A000010B50C4C54F820201A4344F820200A4A52F82020134207D0012905D10222044B43F8202000F000FA10BD704730180000B081FF1F8482FF1F7482FF1F80B108B511
:400A40000378012B06D013B1032B06D008BDFFF79FFF08BDFFF7C2FF08BDFFF793FF08BD704700BF30B400EB40029300214AD258214B03EBC2035C68B4F1FF3F04D11E4B97
:400A800003EBC20250602DE01C4B03EB04139B6899420AD2184D05EBC2025060174A02EB04125B1A93601DE01C46144B03EB04139A68891ADB68B3F1FF3F05D00F4A02EB64
:400AC000031292689142EFD2B3F1FF3F05D00B4A02EB031295686D1A9560084A02EB0414E0601C46054B03EB00108160C46030BC704700BFFC170000D480FF1FE082FF1F19
:400B000038B5394A02EBC0035C6852F83030013342F8303000EB40018A0034498A58934203D90022304B43F83020B4F1FF3F59D02F4B03EB04139B68002B4ED1214600E04C
:400B400019462B4B03EB0113DB68B3F1FF3F05D0274A02EB03129268002AF1D0244A02EB01114FF0FF32CA601F4A02EBC0004360B3F1FF3F07D01E4A02EB03139A68013A2B
:400B80009A6000E02C4604EB44029300194A13441B7A7BB904EB44029300164A13445A68154B53F8223003EB83039A0013481044FFF744FF0E4B03EB0413DD68596821B134
:400BC00001392046FFF74EFF03E024010022084B1A51B5F1FF3FD5D138BD054A02EB0414013BA36038BD00BFD480FF1F24180000E082FF1FFC1700001C180000D417000004
:400C000038B5EFF3108572B6002838D1FFF778FF204B1B68002B34D11F4B1C6800F0E2F8B0F1FF3F2FD01D4B53F820201C4B1B689A422AD9B4F1FF3F03D00221194A42F8A4
:400C40002410194A52F820201343154A13600022144B43F8202000F081F8144B53F820304BB10024114B43F8204040F0004000F077FA20460AE000F073FA002006E003200E
:400C800004E0002002E0002000E0002085F3108838BD00BFB882FF1F9C81FF1F601800009C82FF1FB081FF1F501800006482FF1F08B500F053F8084B53F8203043B100226C
:400CC000054B43F8202040F00040044B186008BD024B186008BD00BF6482FF1FBC82FF1F10B500F07FF8124B1B68B0F1FF3F1AD0104A52F82010104A1268914213D9B3F1A4
:400D0000FF3F03D002240D4941F8234000210B4B43F820100A4B53F820301A43064B1A60FFF7C6FF10BD43F00043064A136010BD9C81FF1F601800009C82FF1FB081FF1FC4
:400D400050180000BC82FF1F034B1B6813B10022014B1A60704700BFAC82FF1FF0B4184B19880B0A174AD356B3F1FF3F01D1535601E008335BB2144D55F82320134850F80F
:400D80002200134E56F8224045F82340114D2F6846F822702A60B4F1FF3F09D10E4A42F82340012202FA03F321EA0301044B19800A4B19680A4A42F820101860F0BC7047E4
:400DC0009882FF1FC81600005C81FF1FC082FF1FEC80FF1F9482FF1F1C81FF1F9C81FF1FA081FF1F0C4B1A88130A0C49CB56B3F1FF3F01D18B5601E008335BB2B3F1FF3F63
:400E000006D0074A52F82320064B53F8220070474FF0FF30704700BF9882FF1FC81600005C81FF1FC082FF1F30B4144B53F82020134C2368134951F823502560124C44F845
:400E400023004FF0FF3441F82340104951F82210A1420AD10E4951F820400E480188214301800D4941F8223002E0064840F82130064941F8223030BC704700BFFC80FF1F7B
:400E80009482FF1FEC80FF1FC082FF1F1C81FF1F601800009882FF1F5C81FF1F10B150F8210070474FF0FF30704700BF0122014B1A60FEE7B482FF1F70B50546124B53F8AF
:400EC000306000241CE0104B03EBC50321465868FFF7E4FF0D4A52F82030013B42F820300B4B53F82030032B07D10222084B43F820200022074B43F82020FFF795FF0134E3
:400F0000B442E0D370BD00BFC81700000C81FF1FB081FF1F8482FF1F18B908B5FFF7CCFF08BD7047194B1A4ADA621A4A9A631A4ADA63EFF3108272B6184B1B6813BB10B539
:400F4000044600F053F8164B1C600122134B1A602046FFF7E1FFFFF745FFB0F1FF3F0ED0104B53F82030104A11680B43136000220E4B43F82020FFF7F1FE00F0F1F862B68B
:400F8000FFF794FF82F31088072070470080FF1F21110000E510000091000000B482FF1F0083FF1F501800009C82FF1FB081FF1F08B5EFF3108272B6094B1968094B1B687A
:400FC00033B94FF0FF30084B43F82100002000E0022010B9084600F01CF982F3108808BD9C81FF1FB882FF1FDC80FF1F10B5EFF3108472B600F064F8034A136843F07F435F
:40100000136084F3108810BD20ED00E07222074B1A70202201331A7006225F3B1A70472210331A700022B33B1A7070478965004010B500F03DF804460A4A137843F020039A
:4010400013700132137843F010031370A2F58172137843F01003137000F014F8204600F02BF810BD9965004008B5054B1B7823B9FFF7CCFF0122024B1A70FFF7D9FF08BD3E
:40108000A882FF1F054A137843F0010313701032137843F001031370704700BFA24300400230800803D000BF01380046FCD17047EFF3108072B6704780F31088704700BF11
:4010C00018484FF47F0102680A43026016486FF07F4102680A400260704714484FF080510160704772B611484FF000610160FFF7F7FD0F48006800F0C3F858B10C4800684B
:401100004FF080730B4A0C490FB40FB46FF00600004700BF6FF0060062B6004762B600DF08B0704720ED00E01CED00E004ED00E0BC82FF1F611100001D110000EFF30880AB
:40114000054908600548006880F3088870470248006880F308887047D481FF1FD081FF1F411C8900154A11440968154A136899421AD0F0B444464D4656465F46F0B400B5F7
:40118000104C9B002344EFF308851D60116089002144096881F3088802BC8E46F0BCA046A946B246BB46F0BC002806DB00B500F05BF802BC8E46FFF7D3BF704790180000DF
:4011C000A082FF1FA482FF1FF0B444464D4656465F46F0B400B5EFF3038308B48000174901440968164A0244EFF30883136088471448804704BC4FF08070024382F30388AA
:4012000001BC8646F0BCA046A946B246BB46F0BC704780000A4901440A6882F3088804BC4FF08070024382F3038808BC9E46F0BCA046A946B246BB46F0BC70477018000078
:40124000D082FF1F4912000008B572B6014B1868FFF7DFFF9C81FF1F08B5024B1868FFF7B3FF08BD9C81FF1F08B562B6FFF7F4FF72B600F041F8014B186808BDBC82FF1FB5
:4012800000280BDA20F000400130054B53F82000044B1B68181A18BF012070470120704790180000A082FF1F054B53F82020054B53F820309A4201D101207047002070474F
:4012C0000C81FF1F4018000008B5FFF747FD084B53F8203043B10022054B43F8202040F00040044B186008BD024B186008BD00BF6482FF1FBC82FF1F38B5364B1C6800226C
:40130000354B1A60354A52F82430013342F82430334B53F824502046FFF7C6FF012801D0A54204D103222F4B43F8242003E002222C4B43F824202C4B53F824102B4A1368BF
:4013400023EA010313602A4B53F82440214B1C60B5F1FF3F0FD0234B53F82530032B07D10222204B43F825200022224B43F825202846FFF759FDFFF735FDB0F1FF3F0BD14B
:40138000B4F1FF3F03D00022164B43F8242044F00044194B1C6038BD184B53F82020134B1B689A4208D800220E4B43F8242044F00044114B1C6038BD00210A4A42F820107F
:4013C000094A52F820201343084A1360FFF77CFF38BD00BF9C81FF1FAC82FF1F0C81FF1FDC80FF1FB081FF1F501800009C82FF1FA081FF1F8482FF1FBC82FF1F60180000FA
:40140000014B1868704700BF3882FF1F0E4B70B51E460E4C0025E41AA410A54204D056F8253098470135F8E700F068FA084B094C1E46E41AA4100025A54204D056F825309A
:4014400098470135F8E770BD0819000008190000081900001019000010B5431E0A44914204D011F8014B03F8014FF8E710BD03460244934202D003F8011BFAE77047000073
:4014800000000000000001000100010001000100010001000100020002000200020002000200020002000200020002000200030003000300030003000300030004000400EF
:4014C0000400040004000400050005000500050005000600060006000600070007000700080008000800090009000A000A000A000B000B000C000C000D000D000E000F00E9
:401500000F00100011001100120013001400150016001700180019001A001B001C001D001F0020002100230024002600280029002B002D002F0031003400360038003B009D
:401540003D0040004300460049004C004F00530057005B005F00630067006C00700075007B00800086008C00920098009F00A600AD00B500BD00C500CE00D700E100EB0031
:40158000F50000010B011701240130013E014C015B016A017A018B019C01AF01C201D601EA01000217022E02470261027C029802B502D402F402160339035D038303AB0314
:4015C000D50300042D045D048E04C204F80430056B05A805E8052B067106BA0606075607A90700085B08B9081C098309EF09600AD50A500BD10B560CE20C740D0D0EAC0E6D
:40160000520F0010B510731138120713DF13C014AB15A116A117AD18C419E91A1A1C581DA51E00206B21E52271240E26BD278029562B412D422F5A318933D1353338B03A79
:40164000493D0040D542CB45E2481C4C7A4FFF52AC56825A845EB3621267A26B66706075927A0080AA85958BC3913798F59EFEA558AD04B508BD66C524CE44D7CCE0C0EA86
:4016800025F5FFFF305100404000F0510040100000000140001000140140800400190140000300400140000A004C0140000200500140200060520040D00400480600801882
:4016C0000140D80400488000FF000101020202020303030303030303040404040404040404040404040404040505050505050505050505050505050505050505050505052C
:401700000505050505050505060606060606060606060606060606060606060606060606060606060606060606060606060606060606060606060606060606060606060631
:4017400006060606060606060707070707070707070707070707070707070707070707070707070707070707070707070707070707070707070707070707070707070707B1
:401780000707070707070707070707070707070707070707070707070707070707070707070707070707070707070707070707070707070707070707070707070707070769
:4017C000070707070707070701000000D01700000000000000000000020000000000000000000000FFFFFFFF00000000030000000000000000000000FFFFFFFF00000000CC
:40180000000000000000000000000000010000000000000000000000010000000000000001000000102700000000000001000000000000000000000000000000000000006D
:40184000010000000100000001000000010000008000000001000000400000004000000001000000010000004000000040000000510100006D0200009901000089010000FC
:40188000591200005912000059120000591200000000000000000000000000000000000000000000616C61726D5F696E69740000616C61726D5F74696D65725F7469636BC5
:4018C000000000007461736B5F696E69740000007461736B5F6261636B67726F756E64007461736B5F666164657200007461736B5F74696D6572000043000000F8B500BFFA
:40190000F8BC08BC9E4670474D00000029050000F8B500BFF8BC08BC9E4670472900000030190000C880FF1F78010000C802000000000000A4180000B018000000000000FB
:40194000FFFFFFFFFFFFFFFFFFFFFFFFFFFFFFFFFFFFFFFF010000000200000003000000FFFFFFFF000000000000000006000000060000000100000001000000010000006A
:4019800001000000FFFFFFFFFFFFFFFFFFFFFFFFFFFFFFFFFFFFFFFFFFFFFFFFFFFFFFFFFFFFFFFFFFFFFFFFFFFFFFFFFFFFFFFFFFFFFFFFFFFFFFFFFFFFFFFFFFFFFFFF62
:4019C000FFFFFFFFFFFFFFFFFFFFFFFFFFFFFFFFFFFFFFFFFFFFFFFFFFFFFFFFFFFFFFFFFFFFFFFFFFFFFFFFFFFFFFFFFFFFFFFFFFFFFFFFFFFFFFFFFFFFFFFFFFFFFFFF27
:401A0000FFFFFFFFFFFFFFFFFFFFFFFFFFFFFFFFFFFFFFFFFFFFFFFF03000000030000000300000003000000C4180000D0180000E0180000EC1800000485FF1F000000004B
:401A40000000000000000000000000000000000000000000000000000000000000000000F81800000000000000000000000000000000000000000000000000000000000056
:401A80000000000000000000000000000000000000000000000000000000000000000000D881FF1F00000000000000000000000000000000000000000000000000000000AF
:401AC00000000000000000000000000000000000000000000000000000000000000000000000000000000000000000000000000000000000000000000000000000000000E6
:401B000000000000000000000000000000000000000000000000000000000000000000000000000000000000000000000000000000000000000000000000000000000000A5
:401B40000000000000000000000000000000000000000000000000000000000000000000000000000000000000000000000000000000000000000000000000000000000065
:401B80000000000000000000000000000000000000000000000000000000000000000000000000000000000000000000000000000000000000000000000000000000000025
:020000040003F7
:0200000480007A
:40000000025200400364004003650040570201402F030140030501406008014039090140011501400C180140431901404F1A0140471B014002400140044101400442014025
:40004000014301400245014001460140044701400148014003490140014C0140074D0140055001400151014000401101820D830D880F89728A388B0D070116041E04220237
:40008000230227022A012B01300131023202340435013E104030410445D04721483249FF4AFF4BFF4DA04F04501852805405580459045A045B045C115D115F01604062C07A
:4000C0006440654066C068C06AC06CC06EC082028B018D0191029201960497029A02B004B102B402B601B701BE10C010C103C5D0C610C702C81AC9FFCAFFCBFFCDA0CF04B3
:40010000D018D280D405D804D904DA04DB04DC11DD11DF01E040E2C0E440E540E6C0E8C0EAC0ECC0EEC003800B680D080F02168418401A041B801D081E181F0222402380D6
:40014000251026022E102F90330A38403B203C0841044380450A49024D0151045314540455025604570959025A845D015E085F8073407680C008C2AEC450CAE0CC03CE4C58
:40018000D0CAD6DBAE02B510EE10011002150403050C061407110813091C0A040B020D141413160C19101B0C1C201F03240A26142D092E082F103010311F320F3420371F0E
:4001C0003A083E114034410645E046CB480E49FF4AFF4BFF4EF04F44500C5401580459045A045B045F0166C06A406B02810283018B048E02950399039A049C01A204A304D5
:40020000AA02AD01AF02B002B103B201B404B704BE14BF40C040C106C50DC620C701C819C9FFCAFFCBFFCDA0CF04D018D804D904DA04DC01DD01DF01E040E2C0E440E5406E
:40024000E6C0E8C0EAC0ECC0EEC0004005200658072009400B080C800E20120813021540162018041A801B081D081E682080210122802540278029802A012D402F013314C6
:400280003610378039223EA83F0240404508464049044B204C804D215208531056905D015E485F2087088E40C071C2A3C4AACA19CC36CEF5D0C1D224D6F0E402E6021A0115
:4002C0001F0227022F013101350236013F10580459045C115F010080010403280604070409800A640E0810821314188019141A401B041E02211422022302244027882980EC
:400300002B242E802F10311032123308360C378038A83A02400141104240430849104B0852015A0268016B147094720273149004932094409520970A98029D809E699F1627
:40034000A040A298A701B402B504C007C24FC40FCA5ECC17CE0FD00FD204D6010080049C05010A030C120D010E44100314031501180719011A381E032603289C2C092E44FC
:40038000300331013280341C36603E403F0154185604580459045B045F01844C861388118A0E8E4C8F01910494119646970499039E08A020A203A503A902B030B20FB3033E
:4003C000B44AB704B802B908BA28BF04C002C740C9FFCA07CBFFCC40CD20CEF0CF05D008D280D405D804D904DA04DB04DC10DD10DF01E040E1A8E240E3200082031804408C
:40040000062809800A640E200F021002110412041640180119011A041B081C401F152201264027202E282F143114321036193880390C3F8047205640574159015C025E809B
:400440005F08600462806340768081848740880289809084910892409401950496069702980299149A049B189D809EE8A041A299A402A580A709C0EFC2AFC417CA60CCE64C
:40048000CE1AD020D6D1D80D3220CC1060016680A620D6C0A620AE80B401EA40A6205B40D4019F4084048F409F40E008A6208620A620E640A004108074048880A004C40885
:4004C000DE04E601000308020C0310031C0300038080000040000000001000000C1813000008130002A7001813000C041F00002303BF00000F00100008000000043C00826F
:400500000C1C00A1010400400F401C1F0038008000802A080000000043060200010E00C021FFFFFF62A0F0410C0000000000021304040404000000010000000000004002DA
:4005400000103010001010120000000000000000000000000000000000C0C000C0000000800040808000800000000000000B0B000000000000212100010000000000000020
:40058000000000000000000000000000000000000000000000000000000000000000000000000000000000000000000000000000000000000000000000000000000000003B
:4005C00000000000000000000000000000000000000000000000000000000000000000000000000000000000000000000000000000000000000000000000000000000000FB
:4006000000000000000000000000000000000000000000000000000000000000000000000000000000000000000000000000000000000000000000000000000000000000BA
:40064000000000000000000000000000000000000000000000000000000000000000000000000000000000000000000000000000000000000000000000000000000000007A
:0200000490006A
:0400000000004005B7
:0200000490105A
:04000000BC90ACAF55
:0200000490303A
:02000000CC7BB7
:0200000490402A
:4000000000000000000000000000000000000000000000000000000000000000000000000000000000000000000000000000000000000000000000000000000000000000C0
:400040000000000000000000000000000000000000000000000000000000000000000000000000000000000000000000000000000000000000000000000000000000000080
:400080000000000000000000000000000000000000000000000000000000000000000000000000000000000000000000000000000000000000000000000000000000000040
:4000C0000000000000000000000000000000000000000000000000000000000000000000000000000000000000000000000000000000000000000000000000000000000000
:0200000490501A
:0C00000000012E16106900012E20DCE427
:00000001FF