:400000000080002011000000E1090000E109000008B5044B1A6803F53F5302331A6000F0FFFC00BFFA46004010B5054C237833B9044B13B10448AFF300800123237010BDA8
:40004000A082FF1F00000000F8200000084B10B51BB108490848AFF300800848036803B910BD074B002BFBD0BDE81040184700BF00000000A482FF1FF8200000C880FF1F20
:400080000000000038B505460C4601F019FF611B90FBF1F301FB1300284400224FF47A7101FB00F1022000F0DBFD002038BD00BF10B501F005FF0B49084003D5013860F095
:4000C0000100013080B2084C2080411CC9B2012000F09EFA21780131C9B2002000F098FA002010BD01000080BC82FF1F094B1B88012B02D110F0010F05D133B910F0020F9C
:4001000005D10020704701207047002070470120704700BFBC82FF1F08B501F0FDFA08BD70B52048FFF7F8FF1F48FFF7F5FF1F48FFF7F2FF1E4B18881E4C0A22214680B2B5
:4001400001F081FE204601F0E7FA1B4D284601F0E3FA1A48FFF7E0FF194E30880A22214680B201F070FE204601F0D6FA2846FFF7D3FF1448FFF7D0FF33889BB2124AA2FB3A
:400180000323DB08114A138010880A22214680B201F059FE204601F0BFFA2846FFF7BCFF70BD00BFFC200000102100003C2100005A83FF1F3883FF1FB022000074210000A3
:4001C000C082FF1F9C210000CDCCCCCC3483FF1F104A13889BB201339BB2138013889BB20A2B15D810B50C48FFF796FF094B18880A4C0A22214680B201F025FE204601F05E
:400200008BFA074801F088FA0648FFF785FF10BD704700BF5883FF1FC42100003883FF1FB0220000E421000010B5334B9B78012B0CD013B1022B1ED05CE001285AD10321ED
:40024000FFF720FF01222C4B9A7053E0022851D100F0B4FCFFF72CFF0222274B9A7000224FF47A71012000F0FBFC244B1B889BB2234A13803EE001283CD10846FFF736FF61
:4002800038B32048FFF748FF1F4A13889BB201339BB21380194B1B889BB21C4A138013889AB2174B1B889BB2D31A9BB2184C23801848FFF731FF2088174C0A22214680B22C
:4002C00001F0C1FD204601F027FA1448FFF724FF02E01348FFF720FF0024074B9C70012000F06CFC012000F07BF9204600F078F9FFF76EFF002010BDBC82FF1FC082FF1FBD
:400300003683FF1F182200005A83FF1F3083FF1F3283FF1F3C2200003883FF1FB02200005022000008B5002000F018FE08BD00BF684620F007018D4619B572B6EFF3118425
:400340001E4B1B68DBB20F2B10D9103B23F0030202F1604202F564421168DB0003F01803E0229A400A4022FA03F306E00F2B03D1134B1B681B0E00E0002383F31188114A47
:40038000136801331360012B01D101F0A5FB62B6FFF7C8FF72B684F3118800F0D9FF094A1368013B13601BB901F09FFB01F063FB62B6BDE819408546704700BF04ED00E064
:4003C00020ED00E06883FF1F08B5002001F0B2FD01F04EFD62B645F6BF52054B1A60054A136843F002031360002001F09FF8FBE714E000E010E000E010B501F073F900F06B
:40040000FDF801F0F7F8194A136843F00503136001221146002000F023FC05221146032000F01EFC0A221146042000F019FC022000F050FB012000F04DFB01220C4B1A8091
:4004400000220C4B1A800C4C2046FFF765FE0B48FFF762FE2046FFF75FFE0948FFF75CFE0848FFF759FE01F0A7F810BD10E000E05883FF1F5A83FF1F74220000B422000025
:40048000E0220000E4210000034A13889BB201339BB21380704700BFC082FF1F10B582B0002401941FE00F2000F07EFE01A9022000F0DAFD019911F0080F03D00F48FFF767
:4004C0002BFE15E011F0030F03D111F0040F02D102E0012400E0022414B12046FFF7A4FE019800F093FD064B1B889BB20A2BDAD9FFF716FE01F060F802B010BD0023000009
:400500005883FF1F08B500F0A7F801F055F808BD08B500F0FDF801F04FF808BD00BFFDE708B5002000F080F8012803D10121022000F0BAFD012000F077F8012803D1022164
:40054000084600F0B1FD08BD684620F007018D4619B572B6EFF311841E4B1B68DBB20F2B10D9103B23F0030202F1604202F564421168DB0003F01803E0229A400A4022FAEF
:4005800003F306E00F2B03D1134B1B681B0E00E0002383F31188114A136801331360012B01D101F099FA62B6FFF7BAFF72B684F3118800F0CDFE094A1368013B13601BB92B
:4005C00001F093FA01F057FA62B6BDE819408546704700BF04ED00E020ED00E06883FF1F08B5012802D101F02FF802E0002001F02BF8002001F022F8002008BD08B5012048
:40060000FFF7EEFF0020FFF7EBFF002008BD00BF10B50C4601F018F8024B185D01F00EF8002010BD1023000008B510B1012806D00BE001F015F8012809D0002008BD01F004
:4006400017F8012805D0002008BD002008BD012008BD012008BD00BF38B52B4A138801339BB21380FE2B13D801F0EEF8274C264D2B8814F8130001F09DF8002001F072F962
:400680002B88C3F1FF0314F8130001F0FFF838E0A3F1FF0292B2FE2A14D801F0ADF91A4D2B88C3F5FF73194C14F8130001F082F82B88FF3B14F8130001F054F9002001F0A0
:4006C000E5F81EE0A3F5FF739BB2FE2B16D801F027F9002001F06EF80B4D2B88C3F53F7301330A4C14F8130001F03CF92B88A3F5FF7314F8130001F0C9F802E00022024B06
:400700001A80002038BD00BFC282FF1F2023000038B5194D194C238803EB43035A00A85C01F078F9238803EB43035A002A44507801F07CF9238803EB43035A001544A878C8
:4007400001F080F92388082B02D10022228002E001330A4A1380042000F030FA074B1B8803EB43035A00044B134400229988042000F076FA38BD00BF20250000C482FF1F12
:40078000FEE700BFF0B40022174611E050F82760F3B226F0FF0608E001EB420511F812406D78A5550132013BDBB2002BF4D101371B2FEBD9F0BC7047064B1B78DBB203F0A4
:4007C0000701054A11701B09013213704422034B1A707047CF0100496E5800407658004008B50A46002101F03BFB08BD38B51925264B1D801823264A137040F2CF710232FE
:400800001180023213700222224B1A7008224FF040231A70032103F5007319701E4B1B78DBB21E490B701E4B1A8041F25122023B1A8000240CE01B4B1B7803F0010343EACF
:40084000440404F003044FF4F07001F0CDF9013D0DB1032CEFD115B90320FFF791FF124B4FF480721A8007221A7000220F490A704820023108701A700222033B1A700C4AC7
:40088000137843F00303137038BD00BF80400040824000400043004008010049A146004022420040254200400440004006400040A243004008B501F0C8FA08BD38B572B67B
:4008C00000240CE0344D630019194A0011462A44084691882858FFF783FF0134E4B2062CF0D900240BE02C49A3001819420088180622016BC06AFFF7DDFF0134E4B2002CDD
:40090000F1D026494FF09040FFF73CFF244A137843F0020313701032137843F002031370204C237843F040032370A2F58632513A137843F01003137008221B491B48FFF7E6
:40094000B9FF0A221A491B48FFF7B4FF08221A491A48FFF7AFFF082219491A48FFF7AAFF082219491948FFF7A5FF194A137843F008031370174D61232B70FFF737FF81237B
:400980002B700122144B1A70FFF716FF0E2221461248FFF78FFF38BD582500007000004803500140A0430040B405004802510040BC050048C0510040C80500481251004089
:4009C000D005004822510040D805004832510040224300400048004004000840B043004008B501F0EDF903680C2B00D1FEE7FEE708B5094B1A681044084BC31A802B02DC22
:400A0000054B186005E001F0DBF90C2303604FF0FF32104608BD00BFCC80FF1F9895FF1F08B5104E104D16E029686B68AC68002204E051F8040B43F8040B0432A242F8D142
:400A4000E868002203E0002143F8041B04328242F9D11035013E002EE6D101F0B7F9FFF7B3FCFEE7010000004829000008B5104A104B1A60104A136843F4007313600023DB
:400A80000AE0032B03D80D4A52F8231000E00C490C4A42F8231001332F2BF2D90A4B1A780A4B1A70074A0A4B1A60FFF707FF08BD0004FA050CED00E014ED00E000000000BA
:400AC000E10900000080FF1FBC760040C080FF1F08ED00E038B5EFF3108572B605284ED82D4B53F82030002B4BD02B4A013B42F820302A4B53F82030032B07D10222274BAA
:400B000043F820200022264B43F8202000F090FC244B1B68002B36D1234B1C6800F066FCB0F1FF3F31D0214B53F82020204B1B689A422CD9B4F1FF3F03D00221174A42F82E
:400B400024101C4A52F820201343194A13600022124B43F8202000F005FC174B53F820304BB10024144B43F8204040F0004000F0C5FF20460CE000F0C1FF002008E00320D2
:400B800006E0042004E0002002E0002000E0002085F3108838BD00BF3481FF1FE881FF1FF882FF1F6883FF1FCC81FF1FC82700001883FF1FA0270000C882FF1FEFF31082B0
:400BC00072B604283CD803012249CB58002B39D010B400EB40018B001F49CC581F4B03EBC4035968884209D11A4B03EB0013D9681A4B03EBC40461600DE01946154B03EB1F
:400C00000113DB689842F8D1124B03EB0014E46803EB0111CC600F4B03EB0013DC68B4F1FF3F08D00B4B03EB0011896803EB04139C6821449960030100200649C85005E06C
:400C4000032000E0052082F31088704782F3108810BC70474093FF1F00270000E480FF1FF8B5EFF3108472B6042825D800EB4005AB00184DEB5803EB4306B500164E755949
:400C80008D421BD34AB103EB43039E00124B1E44B3689A4214D3954214D3A9B103010F4DEB589BB90301EE180127EF507260013900F086F800200AE0032008E0082006E0F0
:400CC000082004E0082002E0082000E0072084F31088F8BD00270000642700004093FF1F18B108B5C368984708BD704708B508B1406800E00020052816D80C4B53F8203011
:400D000093B10A4A013B42F82030094B53F82030032B07D10222064B43F820200022054B43F8202000F084FB08BD00BF3481FF1FE881FF1FF882FF1F18B1034640689B68E1
:400D400001E00023184605281DD80F4A52F82020CAB10E4A52F82010032914D010B50C4C54F820201A4344F820200A4A52F82020134207D0012905D10222044B43F8202035
:400D800000F056FB10BD704770270000E881FF1FF882FF1FE082FF1F80B108B50378012B06D013B1032B06D008BDFFF79FFF08BDFFF7C2FF08BDFFF793FF08BD704700BFA8
:400DC00030B400EB40029300214AD258214B03EBC2035C68B4F1FF3F04D11E4B03EBC20250602DE01C4B03EB04139B6899420AD2184D05EBC2025060174A02EB04125B1A7F
:400E000093601DE01C46144B03EB04139A68891ADB68B3F1FF3F05D00F4A02EB031292689142EFD2B3F1FF3F05D00B4A02EB031295686D1A9560084A02EB0414E0601C46F4
:400E4000054B03EB00108160C46030BC704700BF00270000E480FF1F4093FF1F38B5394A02EBC0035C6852F83030013342F8303000EB40018A0034498A58934203D90022DF
:400E8000304B43F83020B4F1FF3F59D02F4B03EB04139B68002B4ED1214600E019462B4B03EB0113DB68B3F1FF3F05D0274A02EB03129268002AF1D0244A02EB01114FF038
:400EC000FF32CA601F4A02EBC0004360B3F1FF3F07D01E4A02EB03139A68013A9A6000E02C4604EB44029300194A13441B7A7BB904EB44029300164A13445A68154B53F8FA
:400F0000223003EB83039A0013481044FFF744FF0E4B03EB0413DD68596821B101392046FFF74EFF03E024010022084B1A51B5F1FF3FD5D138BD054A02EB0414013BA36056
:400F400038BD00BFE480FF1F642700004093FF1F00270000502700009C26000038B5EFF3108572B6002838D1FFF778FF204B1B68002B34D11F4B1C6800F038FAB0F1FF3F28
:400F80002FD01D4B53F820201C4B1B689A422AD9B4F1FF3F03D00221194A42F82410194A52F820201343154A13600022144B43F8202000F0D7F9144B53F820304BB10024E1
:400FC000114B43F8204040F0004000F097FD20460AE000F093FD002006E0032004E0002002E0002000E0002085F3108838BD00BF6883FF1FCC81FF1FC82700001883FF1F27
:40100000E881FF1FA0270000C882FF1FEFF3108372B6114A1168114A126882B9B1F1FF3F0FD00F4A52F821206AB110B40D4C54F8212022EA000044F82100002007E002207F
:4010400002E0022000E0012083F31088704783F3108810BC704700BFCC81FF1F6883FF1F70270000F882FF1F05280FD80B4B53F820306BB10A4B53F82030032B0AD059B190
:40108000084B53F820300B60002070470320704701207047072070470E20704770270000E881FF1FF882FF1F38B5EFF3108472B6052853D8324B53F82030002B50D0314B13
:4010C00053F82030032B4DD02F4D55F820200A4345F820202D4A52F82020114244D0012B44D10222274B43F8202000F0A1F9284B1B68002B3CD1274B1D6800F077F9B0F1CD
:40110000FF3F37D0244B53F82020244B1B689A4232D9B5F1FF3F03D002211A4A42F825101F4A52F8202013431C4A13600022154B43F8202000F016F91A4B53F820304BB1D0
:401140000025184B43F8205040F0004000F0D6FC284612E000F0D2FC00200EE003200CE001200AE0072008E0002006E0002004E0002002E0002000E0002084F3108838BD85
:4011800070270000E881FF1FF882FF1FE082FF1F6883FF1FCC81FF1FC82700001883FF1FA0270000C882FF1F38B5EFF3108472B6364B1D68364B1B68002B5DD1B5F1FF3FDC
:4011C0005CD0344B53F82530002B59D0324B53F82530034256D1314B43F825000122304B43F825202F4B53F825002F490B6823EA00030B602D4B43F825202D4B53F825207D
:40120000224B1A6000F0F2F8B0F1FF3F06D0294B53F82020244B1B689A420DD81B4B1868B0F1FF3F03D000221D4B43F8202040F0004000F063FC1AE00021194A42F8201042
:40124000184A52F820201343174A136000F08AF8164B53F8203043B10022144B43F8202040F0004000F04AFC01E000F047FC00200A4B43F8250006E0022004E0022002E07B
:40128000012000E0002084F3108838BDCC81FF1F6883FF1F70270000F882FF1FE082FF1FE881FF1FA02700001883FF1FC882FF1FD081FF1FC827000008B500F053F8084BCE
:4012C00053F8203043B10022054B43F8202040F00040044B186008BD024B186008BD00BFC882FF1F6C83FF1F10B500F07FF8124B1B68B0F1FF3F1AD0104A52F82010104AB5
:401300001268914213D9B3F1FF3F03D002240D4941F8234000210B4B43F820100A4B53F820301A43064B1A60FFF7C6FF10BD43F00043064A136010BDCC81FF1FC8270000C5
:401340001883FF1FE881FF1FA02700006C83FF1F034B1B6813B10022014B1A60704700BF5C83FF1FF0B4184B19880B0A174AD356B3F1FF3F01D1535601E008335BB2144D3B
:4013800055F82320134850F82200134E56F8224045F82340114D2F6846F822702A60B4F1FF3F09D10E4A42F82340012202FA03F321EA0301044B19800A4B19680A4A42F8B6
:4013C00020101860F0BC70471483FF1F902500008C81FF1F1093FF1F0481FF1F1083FF1F4C81FF1FCC81FF1FD081FF1F0C4B1A88130A0C49CB56B3F1FF3F01D18B5601E071
:4014000008335BB2B3F1FF3F06D0074A52F82320064B53F8220070474FF0FF30704700BF1483FF1F902500008C81FF1F1093FF1F30B4144B53F82020134C2368134951F8C2
:4014400023502560124C44F823004FF0FF3441F82340104951F82210A1420AD10E4951F820400E480188214301800D4941F8223002E0064840F82130064941F8223030BCF3
:40148000704700BF1C81FF1F1083FF1F0481FF1F1093FF1F4C81FF1FC82700001483FF1F8C81FF1F10B150F8210070474FF0FF30704700BF0122014B1A60FEE76483FF1F94
:4014C00070B50546124B53F8306000241CE0104B03EBC50321465868FFF7E4FF0D4A52F82030013B42F820300B4B53F82030032B07D10222084B43F820200022074B43F8C4
:401500002020FFF795FF0134B442E0D370BD00BF902600003481FF1FE881FF1FF882FF1F18B908B5FFF7CCFF08BD7047194B1A4ADA621A4A9A631A4ADA63EFF3108272B602
:40154000184B1B6813BB10B5044600F053F8164B1C600122134B1A602046FFF7E1FFFFF745FFB0F1FF3F0ED0104B53F82030104A11680B43136000220E4B43F82020FFF7EC
:40158000F1FE00F0BBFA62B6FFF794FF82F31088072070470080FF1FBD1A0000811A0000310300006483FF1F9093FF1FA02700001883FF1FE881FF1F08B5EFF3108272B621
:4015C000094B1968094B1B6833B94FF0FF30084B43F82100002000E0022010B9084600F0E6FA82F3108808BDCC81FF1F6883FF1FEC80FF1F38B50D4B1D68EFF3108472B6F5
:4016000000F02CFA0A4A136843F07F431360094B6B640221012000F0A1F8074A136843F00203136084F3108838BD00BF08ED00E020ED00E04905000000E100E0014B18708E
:40164000704700BF79650040044A137803F0DF03400100F0200018431070704730510040024B1878C0F3C000704700BF01510040024B1878C0F30010704700BF0151004084
:401680007222084B1A70202203F581731A700622603B1A70472210331A700022B33B1A70704700BF8964004010B500F0A5FA04460B4A137843F02003137002F58172137875
:4016C00043F010031370A2F20312137843F01003137000F033F8204600F092FA10BD00BF9964004008B5054B1B7823B9FFF7C8FF0122024B1A70FFF7D7FF08BD2083FF1FD9
:40170000034B1B7813F0040FFAD1024B18707047686400404865004038B5074B1B782BB938BDFFF7EDFF0134A4B201E005460024285D0028F5D138BD2083FF1F054A1378F7
:4017400043F0010313701032137843F001031370704700BFA243004001BE704738B504460D46072902D90020FFF7F6FF1F2C02D90020FFF7F1FF04F01F0000F1604000F5B2
:4017800064406D01EDB2057038BD00BF024A137843F080031370704773640040014B1870704700BF03640040014B1870704700BF43640040014B1870704700BF236400403E
:4017C000014B1870704700BF83640040014B1878704700BF63640040014B1878704700BF5364004008B501E0FFF7F6FFFFF7EEFF10F0100FF8D108BD10B5114A137803F01F
:40180000C00343F0090313700E4C237843F001032370FF20FFF7C2FFFF20FFF7C5FF7F20FFF7C8FF0020FFF7CBFF00F0E5F9237843F01003237000F0E3F9FFF7D3FF10BDD6
:40184000736400409364004008B5054B1B7823B9FFF7D2FF0122024B1A70FFF797FF08BD2283FF1F024A137843F080031370704772640040014B1870704700BF02640040FC
:40188000014B1870704700BF42640040014B1870704700BF22640040014B1870704700BF82640040014B1878704700BF62640040014B1878704700BF5264004008B501E03A
:4018C000FFF7F6FFFFF7EEFF10F0100FF8D108BD10B5114A137803F0C00343F0090313700E4C237843F001032370FF20FFF7C2FFFF20FFF7C5FF7F20FFF7C8FF0020FFF76A
:40190000CBFF00F079F9237843F01003237000F077F9FFF7D3FF10BD726400409264004008B5054B1B7823B9FFF7D2FF0122024B1A70FFF797FF08BD2383FF1F024A13789D
:4019400043F08003137070477A650040014B1870704700BF09650040014B1870704700BF49650040014B1870704700BF29650040014B1870704700BF89650040014B1878BC
:40198000704700BF69650040014B1878704700BF5965004008B501E0FFF7F6FFFFF7EEFF10F0100FF8D108BD10B5114A137803F0C00343F0090313700E4C237843F00103EB
:4019C0002370FF20FFF7C2FFFF20FFF7C5FF7F20FFF7C8FF0020FFF7CBFF00F00DF9237843F01003237000F00BF9FFF7D3FF10BD7A6500409965004008B5054B1B7823B99D
:401A0000FFF7D2FF0122024B1A70FFF797FF08BD2483FF1F044A137803F0DF03400100F0200018431070704720510040044A137803F0EF03000100F010001843107070473C
:401A400020510040044A137803F0F703C00000F008001843107070472051004018484FF47F0102680A43026016486FF07F4102680A400260704714484FF0805101607047EA
:401A800072B611484FF000610160FFF72DFC0F48006800F0D5F858B10C4800684FF080730B4A0C490FB40FB46FF00600004700BF6FF0060062B6004762B600DF08B070474D
:401AC00020ED00E01CED00E004ED00E06C83FF1FFD1A0000B91A0000EFF30880054908600548006880F3088870470248006880F3088870473482FF1F2882FF1F411C8900CB
:401B0000154A11440968154A136899421AD0F0B444464D4656465F46F0B400B5104C9B002344EFF308851D60116089002144096881F3088802BC8E46F0BCA046A946B2465D
:401B4000BB46F0BC002806DB00B500F06DF802BC8E46FFF7D3BF7047102800001C83FF1F2C82FF1FF0B444464D4656465F46F0B400B5EFF3038308B48000174901440968FE
:401B8000164A0244EFF30883136088471448804704BC4FF08070024382F3038801BC8646F0BCA046A946B246BB46F0BC704780000A4901440A6882F3088804BC4FF0807095
:401BC000024382F3038808BC9E46F0BCA046A946B246BB46F0BC7047E02700002893FF1F091C0000000000000230800803D000BF01380046FCD17047EFF3108072B6704776
:401C000080F31088704700BF08B572B6014B1868FFF7CDFFCC81FF1F08B5024B1868FFF7A1FF08BDCC81FF1F08B562B6FFF7F4FF72B600F041F8014B186808BD6C83FF1F48
:401C400000280BDA20F000400130054B53F82000044B1B68181A18BF0120704701207047102800001C83FF1F054B53F82020054B53F820309A4201D1012070470020704778
:401C80003481FF1F8827000008B5FFF76BFB084B53F8203043B10022054B43F8202040F00040044B186008BD024B186008BD00BFC882FF1F6C83FF1F38B5364B1C680022EC
:401CC000354B1A60354A52F82430013342F82430334B53F824502046FFF7C6FF012801D0A54204D103222F4B43F8242003E002222C4B43F824202C4B53F824102B4A1368F6
:401D000023EA010313602A4B53F82440214B1C60B5F1FF3F0FD0234B53F82530032B07D10222204B43F825200022224B43F825202846FFF77DFBFFF759FBB0F1FF3F0BD13D
:401D4000B4F1FF3F03D00022164B43F8242044F00044194B1C6038BD184B53F82020134B1B689A4208D800220E4B43F8242044F00044114B1C6038BD00210A4A42F82010B5
:401D8000094A52F820201343084A1360FFF77CFF38BD00BFCC81FF1F5C83FF1F3481FF1FEC80FF1FE881FF1FA02700001883FF1FD081FF1FF882FF1F6C83FF1FC827000037
:401DC000014B1868704700BF9882FF1F0E4B70B51E460E4C0025E41AA410A54204D056F8253098470135F8E700F09CFD084B094C1E46E41AA4100025A54204D056F825303A
:401E000098470135F8E770BD30290000302900003029000038290000931E222B10B50C4602D90020087010BD0A2A06D1002804DA2D230B704042012100E00021214400F0EA
:401E40008DF8204610BDFFF7E7BF10B5431E0A44914204D011F8014B03F8014FF8E710BD03460244934202D003F8011BFAE7704738B5124B05461C68A36BD3B9182000F0E7
:401E8000BBF843F20E33A06303804AF6CD33438041F2342383804EF26D63C3804DF6EC630381052343810B23838101220023C0E90423A36B00221D615A6138BD9882FF1FB0
:401EC000194B10B51C68A36BD3B9182000F094F843F20E33A06303804AF6CD33438041F2342383804EF26D63C3804DF6EC630381052343810B23838101220023C0E90423BE
:401F0000A16B0A4C0B6948695C43094A02FB0040A3FB02230132034443F10003C1E9042323F0004010BD00BF9882FF1F2DF451582D7F954C13B5084B044600221868694682
:401F400000F048F80028BCBF4FF0FF330093009804B1206002B010BD9882FF1FF0B58BB003460F466D461A4C04F1200E2E4620686168083403C674453546F7D12179206864
:401F80003171911E222930604FF0000001D938701CE07D1EB3FBF2F402FB14330AAE334413F8283C411C05F8013F23460CB10846F0E77C543A18C11A8B4206DAF95C1478B7
:401FC000FC5402F801190133F5E738460BB0F0BDFE28000038B5074C0023054608461146236000F081F8431C02D1236803B12B6038BD00BF9495FF1F024B0146186800F027
:4020000003B800BF9882FF1F70B5CD1C25F0030508350C2D38BF0C25002D064601DBA94202D90C23336046E000F05CF8234B1C681A462146A1B10B685B1B0ED40B2B03D9F6
:402040000B60CC18CD501EE08C420BBF63684B681360636018BF0C4615E00C464968E9E7174C23681BB9304600F02CF820602946304600F027F8431C18D0C41C24F00304B7
:40208000A0420DD12560304600F02DF804F10B00231D20F00700C31A0ED05A42E25070BD211A304600F00EF80130EBD10C233360304600F018F8002070BD00BF2C83FF1F9E
:4020C0002883FF1F38B5064C0023054608462360FEF78EFC431C02D1236803B12B6038BD9495FF1F70477047024B58221A604FF0FF3070479495FF1F000000000A0A454E20
:4021000044204F46205448452047414D450A00000A42656C6F772061726520796F7572205265616374696F6E2047616D6520526573756C74732E2E2E2E2E0A000A46494E3F
:40214000414C2053434F5245202D20436F7272656374206E756D626572206F6620627574746F6E20707265737365642069733A2000000000546F74616C20526561637469B5
:402180006F6E2074696D65206F66207468652047616D65286D73293A2000000041766572616765205265616374696F6E2074696D65206F66207468652047616D65286D7321
:4021C000293A20000A5265616374696F6E20746573742070726F6772616D20524F554E44200000005072657373206F6E65206F66207468652074776F20627574746F6E73EF
:4022000020746F2073746172742074686520726F756E642E2E2E0A000A47726561742121202D20436F727265637420427574746F6E20507265737365640A0000526561637B
:4022400074696F6E2074696D65286D73293A20000A4F6F7073732121202D2057726F6E6720427574746F6E20507265737365640A000000003D3D3D3D3D3D3D3D3D3D3D3DF8
:402280003D3D3D3D3D3D3D3D3D3D3D3D3D3D3D3D3D3D3D3D3D3D3D3D3D3D3D3D3D3D3D3D3D3D3D3D3D3D3D3D3D3D3D3D3D3D3D3D0A00000020202020202020202020202024
:4022C0002057656C636F6D6520746F20546865205265616374696F6E2047616D65210A005265616374696F6E20746573742070726F6772616D20524F554E4420310A000064
:40230000546F6F20536C6F772E2E2E0A000000003F065B4F666D7D077F6F777C395E7971000001000100010001000100010001000100020002000200020002000200020054
:4023400002000200020002000200030003000300030003000300030004000400040004000400040005000500050005000500060006000600060007000700070008000800D0
:402380000800090009000A000A000A000B000B000C000C000D000D000E000F000F00100011001100120013001400150016001700180019001A001B001C001D001F002000E6
:4023C0002100230024002600280029002B002D002F0031003400360038003B003D0040004300460049004C004F00530057005B005F00630067006C00700075007B00800005
:4024000086008C00920098009F00A600AD00B500BD00C500CE00D700E100EB00F50000010B011701240130013E014C015B016A017A018B019C01AF01C201D601EA01000228
:4024400017022E02470261027C029802B502D402F402160339035D038303AB03D50300042D045D048E04C204F80430056B05A805E8052B067106BA0606075607A907000858
:402480005B08B9081C098309EF09600AD50A500BD10B560CE20C740D0D0EAC0E520F0010B510731138120713DF13C014AB15A116A117AD18C419E91A1A1C581DA51E0020E3
:4024C0006B21E52271240E26BD278029562B412D422F5A318933D1353338B03A493D0040D542CB45E2481C4C7A4FFF52AC56825A845EB3621267A26B66706075927A0080C6
:40250000AA85958BC3913798F59EFEA558AD04B508BD66C524CE44D7CCE0C0EA25F5FFFFFF000000F40100FF0000F4010000FF00F401000000006400FFFFFF006400000029
:4025400000006400FFFFFF006400000000006400FFFFFF0064000000405100403000F0510040100000000140001000140140000800400140000A004C0140000200500140E6
:402580002000000060520040AC05004806000000FF000101020202020303030303030303040404040404040404040404040404040505050505050505050505050505050559
:4025C000050505050505050505050505050505050606060606060606060606060606060606060606060606060606060606060606060606060606060606060606060606066B
:4026000006060606060606060606060606060606070707070707070707070707070707070707070707070707070707070707070707070707070707070707070707070707EA
:40264000070707070707070707070707070707070707070707070707070707070707070707070707070707070707070707070707070707070707070707070707070707079A
:402680000707070707070707070707070707070701000000982600000000000000000000040000000000000000000000FFFFFFFF01000000020000000800000000000000E0
:4026C000FFFFFFFF01000000020000000400000000000000FFFFFFFF00000000050000000000000000000000FFFFFFFF00000000060000000000000000000000FFFFFFFFD8
:40270000000000000000000000000000000000000100000000000000000000000200000000000000000000000300000000000000000000000400000000000000000000008F
:40274000010000000200000003000000040000000000000001000000020000000300000004000000102700000100000001000000000000000000000001000000000000000B
:4027800000000000000000000100000001000000010000000100000001000000010000008000000001000000400000004000000010000000100000000100000002000000EF
:4027C0000400000008000000010000000100000040000000400000001000000010000000F90300001D0500009D040000890400000505000011050000191C0000191C000055
:40280000191C0000191C0000191C0000191C000000000000000000000000000001000000000000000000000000000000616C61726D5F74696D65725F7469636B000000002C
:40284000616C61726D5F77616974317300000000616C61726D5F77616974337300000000616C61726D5F666164657200616C61726D5F676C6F7765720000000065765F42E6
:402880007574746F6E31000065765F427574746F6E32000065765F54696D656F7574000065765F7761697431730000007461736B5F696E69740000007461736B5F62616313
:4028C0006B67726F756E64007461736B5F636F6E74726F6C000000007461736B5F74696D657200007461736B5F666164657200007461736B5F676C6F77657200430030313E
:4029000032333435363738396162636465666768696A6B6C6D6E6F707172737475767778797A0000F8B500BFF8BC08BC9E4670474D0000006D0A0000F8B500BFF8BC08BCA5
:402940009E4670472900000058290000C880FF1FD8010000F8120000000000009895FF1F2C2800004028000050280000602800006C28000000000000FFFFFFFFFFFFFFFF36
:40298000FFFFFFFFFFFFFFFFFFFFFFFFFFFFFFFFFFFFFFFF0100000002000000030000000400000005000000FFFFFFFF000000000000000006000000060000000400000010
:4029C00004000000010000000100000001000000010000000100000001000000FFFFFFFFFFFFFFFFFFFFFFFFFFFFFFFFFFFFFFFFFFFFFFFFFFFFFFFFFFFFFFFFFFFFFFFFF1
:402A0000FFFFFFFFFFFFFFFFFFFFFFFFFFFFFFFFFFFFFFFFFFFFFFFFFFFFFFFFFFFFFFFFFFFFFFFFFFFFFFFFFFFFFFFFFFFFFFFFFFFFFFFFFFFFFFFFFFFFFFFFFFFFFFFFD6
:402A4000FFFFFFFFFFFFFFFFFFFFFFFFFFFFFFFFFFFFFFFFFFFFFFFFFFFFFFFFFFFFFFFFFFFFFFFFFFFFFFFFFFFFFFFFFFFFFFFFFFFFFFFFFFFFFFFF030000000300000088
:402A8000030000000300000003000000030000007C2800008828000094280000A0280000AC280000B8280000C8280000D8280000E4280000F02800009495FF1F0000000023
:402AC000E892FF1F000000000000000000000000000000000000000000000000000000000000000000000000FC28000000000000000000000000000000000000000000001A
:402B0000000000000000000000000000000000000000000000000000000000000000000000000000000000003882FF1F0000000000000000000000000000000000000000BD
:402B40000000000000000000000000000000000000000000000000000000000000000000000000000000000000000000000000000000000000000000000000000000000055
:402B80000000000000000000000000000000000000000000000000000000000000000000000000000000000000000000000000000000000000000000000000000000000015
:402BC00000000000000000000000000000000000000000000000000000000000000000000000000000000000000000000000000000000000000000000000000000000000D5
:402C00000000000000000000000000000000000000000000000000000000000000000000000000000000000000000000000000000000000000000000000000000000000094
:020000040003F7
:0200000480007A
:400000000452004004640040026500405602014033030140020501403E08014033090140050B0140020D0140011501405618014041190140681A01404F1B0140034001404B
:400040000E410140054201400143014002450140014601400247014001480140034901400F4C01400D4D014005500140015101400040014008C50959820D830D880F897271
:40008000890D8B3802020B070E01120415012A042E012F043002320133043404350237013E104040410245D046104702481A49FF4AFF4BFF4DA04F04501852805405580492
:4000C00059045A045B045C115D115F01604062C06440654066C068C06AC06CC06EC0820492029E019F01AA04AD01B001B404B602B701BE10C010C106C5D0C601C702C816D8
:40010000C9FFCAFFCBFFCDA0CF04D018D280D405D804D904DA04DB04DC11DD11DF01E040E2C0E440E540E6C0E8C0EAC0ECC0EEC00380054209800A400D021208158016040E
:4001400019401A041B811C101D021E081F022240264027282B012F02318037083F2043804502460449014A084F0151C052085604571059015A845E885F0172407502832061
:400180008C10C098C219C4C2CA18CC48CE20D0A8D204D6DBE290E480E80203550D80112A135419431B1C1C011D431F34232828012B202D032F4431403201330F35803738F1
:4001C00038083B883E043F115401580459045B045F0181068318850189018D10910192089404951A97049A019B049D1EA518A607A908AD1AAF04B004B102B202B31CB40890
:40020000B501B601BB88BF01D602D710D804D904DB04DC01DF01088009800A540C80122017201A961F04200821882210238024442640271129142B012F4A30063188321044
:40024000350136403710388239283C803D403E025B805C445E025F106802692870687114730279407A01860197089B20A080C28EC444CABECCBFCE9FD6F8E4028880970878
:400280009B20AF20E4808B04E280E608005C02020470060C0810120318141C091D011E10206C22112E20301F3260330138083E043F0440214104450B460E47C0482549FFD4
:4002C0004AFF4BFF4EF04F44500C580459045A045F0166C06A406B028201862688018C398E8490A79218941996A29A409CBFA010A408A818AE40B01FB240B438B680B880DB
:40030000BA02BE04C020C105C5D1C720C823C9FFCAFFCBFFCDA0CF04D018D405D804DA04DB04DD11DF01E040E2C0E440E540E6C0E8C0EAC0ECC0EEC0006802800501060417
:40034000071008840A040B400E820F08102A130216021701184019081B511D081E8024203640420446024711480249024A204C014F48500254405702590A5A8069806B64FC
:40038000710272207305822085028B048D409128928494029640978098849B139D019E02A02CA440A620A70BB312C07FC2DFC49FCC10D0B4D208D60BE006003302C0053B7B
:4003C00006330822093B0A040CC00E33103311101208132814F01522160317111CF32080244028C02C112D092E042F163003313832F03303360C37043A083E404026410445
:4004000042034401450E47C0482149FF4AFF4BFF4C624DA04EF04F41500C5280580459045A045B045D105F016640670269106A306B106D106E106F128280841186068A08EC
:400440008C208E03924096809A409E0CA011A20EAC0CAE13B00FB240B480B630B880BA02BE14C003C704C9FFCA07CBFFCC40CD20CEF0CF05D008D418D604D804DA04DB04B5
:40048000DF01E040E1A8E240E320004802080380040206060710088409020E120FA4102A130216011701180119021A201D011E0A1F442102228829812A0131023208392821
:4004C00040854210450848044B045001560657085D026440670A72407C047E10820483018440881289808E108F80904091289660978098849B139D019E06A02CA108A35095
:40050000A410A681A708AB44B320B411B610B701C0FFC2FDC49FCA08CC03CE06D04FD204D680D8B0E801EC0130403610CC30070108045B04660883048A108E089C40A61051
:40054000C080C210D640D880E280880498049C40AF01E8409C405310D4049720871097209C4084409C40E61050805202544058015F81632066048080878088408F01D40717
:40058000D607D803E40C1080750188809901AA04AB10B001B501B602C408DE04E601EC0E000308020C0310031C03000F808000004000000018C0C000C0000000800040809F
:4005C000800080000000000000FFFF00FF0000000039390001000000002020000000000000000000000000000000000000000000000000000000000000000000000000004B
:4006000000000000000000000000000000000000000000000000000000000000000000000000000000000000000000000000000000000000000000000000000000000000BA
:40064000000000000000000000000000000000000000000000000000000000000000000000000000000000000000000000000000000000000000000000000000000000007A
:40068000000000000000000000000000000000000000000000000000000000000000000000000000000000000000000000000000000000000000000000000000000000003A
:4006C00000000000000000000000000000000000000000000000000000000000000000000000000000000000000000000000000000000000000000000000000000000000FA
:0200000490006A
:0400000000004007B5
:0200000490105A
:04000000BC90ACAF55
:0200000490303A
:02000000E68593
:0200000490402A
:4000000000000000000000000000000000000000000000000000000000000000000000000000000000000000000000000000000000000000000000000000000000000000C0
:400040000000000000000000000000000000000000000000000000000000000000000000000000000000000000000000000000000000000000000000000000000000000080
:400080000000000000000000000000000000000000000000000000000000000000000000000000000000000000000000000000000000000000000000000000000000000040
:4000C0000000000000000000000000000000000000000000000000000000000000000000000000000000000000000000000000000000000000000000000000000000000000
:0200000490501A
:0C00000000012E16106900012E26F6EEFD
:00000001FF